{
  "contractName": "EveToc",
  "abi": [
    {
      "inputs": [],
      "payable": false,
      "stateMutability": "nonpayable",
      "type": "constructor"
    },
    {
      "constant": true,
      "inputs": [],
      "name": "totalSupply",
      "outputs": [
        {
          "internalType": "uint256",
          "name": "",
          "type": "uint256"
        }
      ],
      "payable": false,
      "stateMutability": "view",
      "type": "function"
    }
  ],
  "bytecode": "0x6080604052348015600f57600080fd5b50629896806000819055506084806100286000396000f3fe6080604052348015600f57600080fd5b506004361060285760003560e01c806318160ddd14602d575b600080fd5b60336049565b6040518082815260200191505060405180910390f35b6000548156fea265627a7a723158206bf2d7af9c9a5c1efd4cda416193e268c13b9d8870af35f427a4a497c28fbbd764736f6c63430005100032",
  "source": "pragma solidity ^0.5.16;\n\ncontract EveToc {\n\n    uint256 public totalSupply;\n\n    constructor () public {\n        totalSupply = 10000000; \n    }\n\n    \n}",
  "sourcePath": "/home/vivek/Blockchain/erc20/erc20Token/contracts/EveToc.sol",
  "compiler": {
    "name": "solc",
    "version": "0.5.16+commit.9c3226ce.Emscripten.clang"
  },
  "schemaVersion": "3.2.0",
  "updatedAt": "2020-09-17T09:13:07.816Z",
  "devdoc": {
    "methods": {}
  },
  "userdoc": {
    "methods": {}
  }
}